:020000040000FA
:0400000080312828FB
:100008007E1480310B1F09280A2826282100111F79
:100018000E280F2818282000111F13281428182824
:100028008131C221803126282100111C1C281D285D
:1000380026282000111C2128222826288131D02199
:10004800803126287E10090080312A280D3084004E
:10005800823085002A308600003087000A308231DD
:100068001E228031F401F501A001A101A201A30122
:10007800A401A501A601A701A801A9017E102000DD
:100088008231022A49298231402280312000B4007D
:100098003408F4007408083E86008701403FF200E7
:1000A800413FF30082312422803182313A2280316B
:1000B800F630F2000130F30082312A228031F50156
:1000C800F50A632903302902213003192802031C89
:1000D8006E286F2874280330B4003408F5006329AB
:1000E800013029022D3003192802031C7C287D28A1
:1000F8006329740886008701403FA000413FA100A2
:10010800423FA200433FA300443FA400453FA5004F
:10011800463FA600473FA7000230B4003408F50068
:100128006329740886008701403FB400413FB50049
:10013800423FB600433FB700443FB800453FB900CF
:10014800463FBA00473FBB002008B4022108B53B30
:100158002208B63B2308B73B2408B83B2508B93B1F
:100168002608BA3B2708BB3B3B08031DD2283A08A0
:10017800031DD2283908031DD2283808031DD228A8
:100188003708031DD2283608031DD22891303402BF
:100198000130353B031CD128D228D8280330200051
:1001A800B4003408F500E4280130200029022C307E
:1001B800031928020318E128E228E428F501F50AC2
:1001C80003302902213003192802031CEC28ED28EA
:1001D80063296F28740886008701403FA000413FCB
:1001E800A100423FA200433FA300443FA400453F73
:1001F800A500463FA600473FA70022008E15043001
:100208002000B4003408F5006329740886008701CB
:10021800403FB400413FB500423FB600433FB700FE
:10022800443FB800453FB900463FBA00473FBB00CE
:100238002008B4022108B53B2208B63B2308B73B87
:100248002408B83B2508B93B2608BA3B2708BB3B1E
:100258003B08031D46293A08031D46293908031D92
:1002680046293808031D46293708031D462936083C
:10027800031D4629F53034020130353B031C45295E
:100288004629632922008E11632875082000B400CE
:10029800B5013508003A0319522963293408003A90
:1002A80003194728013A03196628033A03199528C0
:1002B800013A0319EE28073A0319092963290800A6
:1002C80020009901F8309700303096001110170877
:1002D800BF001608BE00210011144230F20002309F
:1002E800F300823124228131013020009800080077
:1002F80022008C018E013F3021008C0037308E00A7
:10030800073023008E0017308C0024008C018E01EA
:100318002100951722009D019E0108002000181D4C
:10032800962997299E291810710897007008960039
:100338001814A229710897007008960008008131E6
:100348007C218131823117228131823136228131FB
:100358008131642181318131B3218131080021004B
:100368009E019B019C0101309D0011174330F20052
:100378000230F30082312A22813108002000111353
:10038800400841040319C929CA29CF2941088A000C
:1003980040080A0081310800200011103F08F100D0
:1003A8003E08F0008131922181318131DD21813196
:1003B800080020003C083D040319E329E429E92941
:1003C8003D088A003C080A008131080001302000FD
:1003D800AA070030AB3DAC3DAD3DAE3DAF3DB03DB5
:1003E800B13D080082313022813171082000A90016
:1003F8007008A80082313D22813108008131A32193
:1004080082318B170B17803146208231072A8031C1
:100418002828003400340034003400340034003418
:100428000034EA3401347230210099009801220026
:1004380096010800FE0012001E00FE0B1F2A003461
:1004480073082000BD007208BC0008007308200073
:10045800C1007208C000080021001C08F1001B0838
:10046800F0000800163021009700080021009D14B4
:10047800080021009D1408002A3008000800080020
:020000040001F9
:04000E00E43FFF1FAD
:00000001FF
