:020000040000FA
:0400000080312828FB
:100008007E1480310B1F09280A2826282100111F79
:100018000E280F2818282000111F13281428182824
:100028008331CF23803126282100111C1C281D284C
:1000380026282000111C2128222826288331DD2388
:10004800803126287E10090080312A2884313C24FA
:100058008031FA0041308400833085004F308600BB
:10006800003087001B30843115248031F001F10104
:10007800F201F301F401F501A0308400003085009D
:10008800243084311B2480317E1020008431032CDD
:10009800B32984313A2480312000BF003F08F4009E
:1000A8007408083E86008701403FA000413FA10038
:1000B80084312124803120302000A0000330A100A9
:1000C8002C30A2000130A3009030A4000130A5001C
:1000D8008231D7228031200020308600003087000E
:1000E800B8308400003085000C30BF0016001A00BC
:1000F800BF0B7A282030A0000330A1005830A2009E
:100108000230A3009030A4000130A5008231D7222C
:10011800803120002030860000308700AC30840019
:10012800003085000C30BF0016001A00BF0B98285D
:100138002D30A0000430A1000030A2000030A30040
:100148000030A4000030A500A601A701A70A83314A
:100158008B2380312000BF003F08F3007308043E62
:1001680086008701403FA000413FA1008431272439
:1001780080317308063E86008701413F8A00403F70
:100188000A008031F501F50ACD29B830BF003F08D3
:10019800A000730886008701403FA100413FA200EC
:1001A8000730B83E86008701413F8A00403F0A0079
:1001B8008031AC302000BF003F08A0007308023E29
:1001C80086008701403FA100413FA2000730AC3EB6
:1001D80086008701413F8A00403F0A0080312100A4
:1001E8003708031DF828F928FE2843080319FD28B5
:1001F800FE28CD2902302000BF003F08F500CD2998
:10020800740886008701403FF000413FF10022005A
:100218008E1503302000BF003F08F500CD29700877
:10022800BF007108C000C101C201C301C401C501FA
:10023800C601740886008701403FC700413FC800D7
:10024800423FC900433FCA00443FCB00453FCC0072
:10025800463FCD00473FCE003F08C7024008C83B95
:100268004108C93B4208CA3B4308CB3B4408CC3B46
:100278004508CD3B4608CE3B4E08031D5A294D087C
:10028800031D5A294C08031D5A294B08031D5A29D6
:100298004A08031D5A294908031D5A29F5304702FF
:1002A8000130483B031C59295A29CD2922008E11B7
:1002B80004302000BF003F08F5007408860087015D
:1002C800403FF000413FF100CD297008BF007108A0
:1002D800C000C101C201C301C401C501C60174083F
:1002E80086008701403FC700413FC800423FC90020
:1002F800433FCA00443FCB00453FCC00463FCD00BA
:10030800473FCE003F08C7024008C83B4108C93BE9
:100318004208CA3B4308CB3B4408CC3B4508CD3B8D
:100328004608CE3B4E08031DB0294D08031DB029D1
:100338004C08031DB0294B08031DB0294A08031DAA
:10034800B0294908031DB029F53047020130483B60
:10035800031CAF29B029CD2922008E11C6287508A3
:100368002000BF00C0014008003A0319BC29CD296C
:100378003F08003A03194D28013A0319C928033ADE
:1003880003190429013A03191329073A031969299A
:10039800CD290800BF2A200A86008701403FA30014
:1003A800413FA40022082402031DDC29210823025E
:1003B8000318DF29E029EE290230A300200886006F
:1003C80087012308810020080B3E860087018101F0
:1003D800810AD62A2008033E86008701403FA300F1
:1003E800413FA40022082402031DFC2921082302FE
:1003F8000318FF29002AD62A2008860087018101D0
:10040800810A7208860087012008093E8400850158
:10041800403F803F413F813FD62A2008093E860061
:100428008701403FA300413FA4002308A5002408FA
:10043800A600A701A801A901AA01AB01AC01720895
:1004480086008701403FAD00413FAE00423FAF000C
:10045800433FB000443FB100453FB200463FB300C0
:10046800473FB4002508AD022608AE3B2708AF3B3E
:100478002808B03B2908B13B2A08B23B2B08B33BFC
:100488002C08B43B2008053E86008701403FB50094
:10049800413FB6003508B7003608B800B901BA01BF
:1004A800BB01BC01BD01BE0134083E02031D762A12
:1004B80033083D02031D762A32083C02031D762AC2
:1004C80031083B02031D762A30083A02031D762ABA
:1004D8002F083902031D762A2E083802031D762AB2
:1004E8002D0837020318792A7A2A882A0230A300AD
:1004F8002008860087012308810020080B3E86001B
:1005080087018101810AA32A2008033E860087010A
:10051800403FA300413FA40024082202031D962A5D
:10052800230821020318992A9A2AA32A20080B3E95
:100538008600870181012008860087018101200843
:10054800033E86008701403FA300413FA4002408E2
:100558002202031DB12A230821020318B42AB52A4E
:10056800D62A20080B3E86008701810120088600D4
:1005780087018101D62A200020088600870101080A
:10058800A300A4012408003A0319CB2AD62A230879
:10059800003A0319CF29013A0319112A033A03191A
:1005A800A32AD62A080084313A2482312000AC00DC
:1005B8002C08F200A0308600003087002D3084001F
:1005C800003085000C30AC0016001A00AC0BE82A8D
:1005D800AD012108AF002008AE002308B1002208B1
:1005E800B0002508B3002408B200CE30B4000130B2
:1005F800B500B8012D308600003087002030840017
:10060800003085000C30AC0016001A00AC0B082B2B
:1006180008002F2B09304F3E86008701413F8A0092
:10062800403F0A00833177082000D0007608CF00C9
:10063800D701D70A402B09304F3E86008701413F3A
:100648008A00403F0A00833177082000D2007608EC
:10065800D100D701402B20005708F800F90179088C
:10066800003A0319382B402B7808003A03190E2B4F
:10067800013A03191F2B402B0800003400340034C2
:1006880000340D3403343734043400340034003477
:1006980000340034003400340034003400340034B2
:1006A800003400340034003400340034F7340334A8
:1006B80020009901F8309700303096001110170883
:1006C800ED001608EC00210011143D302000A000B8
:1006D8000430A100843121248331013020009800A6
:1006E800080022008C018E013F3021008C00373039
:1006F8008E00073023008E0017308C0024008C01F8
:100708008E012100951722009D019E0108002000FE
:100718002708A8002808DF002608A8002808DE0007
:100728002308DB002208DA002108D9002008D800B5
:100738004F3008002000181DA22BA32BAA2B18103D
:1007480077089700760896001814AE2B770897005C
:1007580076089600080083317523833184310E248E
:10076800833184313324833183315C238331833172
:10077800BF238331080021009E019B019C010130A9
:100788009D0011173E302000A0000430A1008431E4
:10079800272483310800200011136E086F04031901
:1007A800D62BD72BDC2B6F088A006E080A00833102
:1007B8000800200011106D08F7006C08F60083315E
:1007C8009E2383318331EA238331080020006A089D
:1007D8006B040319F02BF12BF62B6B088A006A08BF
:1007E8000A008331080001302000E0070030E13DB5
:1007F800E23DE33DE43DE53DE63DE73D080083316C
:10080800AF2384318B170B1780314C208431082C8F
:100818008031282872302100990098012200960121
:100828000800FE0012001E00FE0B162C00346400A7
:1008380080010131890B1C2C003420002108EB00B9
:100848002008EA00080020002108EF002008EE0038
:10085800080021001C08F7001B08F60008001630E5
:100868002100970008002000D70108006030080028
:0608780001340800080035
:020000040001F9
:04000E00E43FFF1FAD
:00000001FF
